:100000000C9434000C9451000C9451000C94510049
:100010000C9451000C9451000C9451000C9451001C
:100020000C9451000C9451000C9451000C9451000C
:100030000C9451000C9451000C9451000C945100FC
:100040000C9451000C9451000C9451000C945100EC
:100050000C9451000C9451000C9451000C945100DC
:100060000C9451000C94510011241FBECFEFD8E026
:10007000DEBFCDBF11E0A0E0B1E0E2E0F1E002C000
:1000800005900D92A030B107D9F721E0A0E0B1E0D2
:1000900001C01D92A030B207E1F70E946D000C94E0
:1000A0007F000C9400001092C50083E38093C4008D
:1000B0001092C00088E18093C10086E08093C20066
:1000C000089528988AE08A95F1F700C0289A85E378
:1000D0008A95F1F700002898089588E38AB980E8A6
:1000E00084B90E9453000E9461002FEF83ED90E3DA
:1000F000215080409040E1F700C00000F4CFF89418
:02010000FFCF2F
:00000001FF
