S0190000426573747572696E677365656E686569642E7372656313
S11300000C9434000C9451000C9451000C94510045
S11300100C9451000C9451000C9451000C94510018
S11300200C9451000C9451000C9451000C94510008
S11300300C9451000C9451000C9451000C945100F8
S11300400C9451000C9451000C9451000C945100E8
S11300500C9451000C9451000C9451000C945100D8
S11300600C9451000C94510011241FBECFEFD8E022
S1130070DEBFCDBF11E0A0E0B1E0EEE2F2E002C0ED
S113008005900D92A230B107D9F721E0A2E0B1E0CA
S113009001C01D92A330B207E1F70E940E010C9437
S11300A015010C9400009BB121E030E002C0220F46
S11300B0331F8A95E2F7292B2BB908959BB121E0D0
S11300C030E002C0220F331F8A95E2F720952923DE
S11300D02BB90895CF93DF93C7E0D0E084E00E946A
S11300E053002FEF89E698E1215080409040E1F7DA
S11300F000C0000084E00E945E002FEF84E39CE0D7
S1130100215080409040E1F700C00000219731F772
S1130110DF91CF9108958091010181110BC085E099
S11301200E945E000E946A0083E00E94530081E006
S113013080930101089580910101813051F483E09D
S11301400E945E000E946A0085E00E9453001092A3
S113015001010895806680937C00EAE7F0E087E877
S11301608083808180648083808186FDFDCF80913F
S1130170790008951092C50083E38093C40010921F
S1130180C00088E18093C10086E08093C200089596
S1130190E0ECF0E080818823ECF78091C6000895BC
S11301A0809100010E94AA00E0ECF0E0908195FFAC
S11301B0FDCF8093C6000895809102010E94AA0099
S11301C0E0ECF0E0908195FFFDCF8093C6000895A8
S11301D00E94C8008836E1F028F48436A9F08736F6
S11301E0D1F00895833741F0843719F08C36A9F49F
S11301F008C00E94DC000895809101018093C6002C
S113020008950E94D000089584E68093C60008955E
S11302100E948B0008950E949B00089588E38AB988
S11102200E94BA000E94E800FDCFF894FFCFC0
S105022E0101C8
S9030000FC
