S01C0000426573747572696E677345656E686569645F76322E7372656329
S11300000C9434000C9451000C9451000C94510045
S11300100C9410010C9451000C9451000C94510058
S11300200C9451000C9451000C9451000C94510008
S11300300C9451000C9451000C9451000C945100F8
S11300400C9451000C9451000C9451000C945100E8
S11300500C9451000C9451000C9451000C945100D8
S11300600C9451000C94510011241FBECFEFD8E022
S1130070DEBFCDBF11E0A0E0B1E0E0E3F7E002C0F5
S113008005900D92A230B107D9F721E0A2E0B1E0CA
S113009001C01D92A330B207E1F70E94BA010C948B
S11300A096030C9400009BB121E030E002C0220FC3
S11300B0331F8A95E2F7292B2BB908959BB121E0D0
S11300C030E002C0220F331F8A95E2F720952923DE
S11300D02BB90895CF93DF93C7E0D0E084E00E946A
S11300E053002FEF89E698E1215080409040E1F7DA
S11300F000C0000084E00E945E002FEF84E39CE0D7
S1130100215080409040E1F700C00000219731F772
S1130110DF91CF9108958091010181110BC085E099
S11301200E945E000E946A0083E00E94530081E006
S113013080930101089580910101813051F483E09D
S11301400E945E000E946A0085E00E9453001092A3
S113015001010895806680937C00EAE7F0E087E877
S11301608083808180648083808186FDFDCF80913F
S1130170790008951092C50083E38093C40010921F
S1130180C00088E18093C10086E08093C200089596
S1130190E0ECF0E080818823ECF78091C6000895BC
S11301A0CF93DF93EC01AC0120E030E0E0ECF0E031
S11301B066EC70E00AC0908195FFFDCFDA018D9165
S11301C0AD01DB018C932F5F3F4FDE010D900020CA
S11301D0E9F71197AC1BBD0B2A173B0760F3DF91BE
S11301E0CF9108958FEF87B93D98459A4498E4E6F6
S11301F0F0E08081877F80831092850010928400D4
S1130200E1E8F0E080818160808380818064808384
S113021082E08093680080E280936C007894089573
S11302201F920F920FB60F9211241F932F933F9397
S11302304F935F936F937F938F939F93AF93BF93EA
S1130240EF93FF93CF93DF93CDB7DEB72797DEBF4E
S1130250CDBF359B06C01092850010928400439A4E
S11302602BC060918400709185001FB7F89480E0E2
S113027090E00E94660226E933E44BE05DE30E94CD
S1130280F40220E030E040E05FE30E94F40220E06A
S113029030E040E751E40E94C5010E943702DC01CE
S11302A0CB014AE0BE016F5F7F4F0E946103CE0124
S11302B001960E94D0001FBF27960FB6F894DEBFA8
S11302C00FBECDBFDF91CF91FF91EF91BF91AF9161
S11302D09F918F917F916F915F914F913F912F915A
S11302E01F910F900FBE0F901F90189580910001E1
S11302F00E94AA00E0ECF0E0908195FFFDCF80938E
S1130300C6000895809102010E94AA00E0ECF0E08A
S1130310908195FFFDCF8093C6000895449A85E3AC
S11303208A95F1F70000449808950E94C800883621
S1130330D9F028F48436A9F08736C9F008958337B4
S113034041F0843719F08C36A1F408C00E94820170
S11303500895809101018093C60008950E9476015A
S113036008950E948E0108950E948B0008950E94B2
S11303709B00089588E38AB980E884B90E94BA0092
S11303800E94F2000E949501FDCF0E94D9010C94B5
S1130390BA020E94B30258F00E94AC0240F029F461
S11303A05F3F29F00C94A30251110C94EE020C94BB
S11303B0A9020E94CB0268F39923B1F3552391F368
S11303C0951B550BBB27AA2762177307840738F0C0
S11303D09F5F5F4F220F331F441FAA1FA9F335D01D
S11303E00E2E3AF0E0E832D091505040E695001CD1
S11303F0CAF72BD0FE2F29D0660F771F881FBB1F8B
S1130400261737074807AB07B0E809F0BB0B802D68
S1130410BF01FF2793585F4F3AF09E3F510578F094
S11304200C94A3020C94EE025F3FE4F3983ED4F3E1
S1130430869577956795B795F7959F5FC9F7880F68
S1130440911D9695879597F90895E1E0660F771FBA
S1130450881FBB1F621773078407BA0720F0621B4B
S1130460730B840BBA0BEE1F88F7E09508950E9476
S1130470D30288F09F5798F0B92F9927B751B0F05D
S1130480E1F0660F771F881F991F1AF0BA95C9F714
S113049014C0B13091F00E94ED02B1E008950C94C3
S11304A0ED02672F782F8827B85F39F0B93FCCF376
S11304B0869577956795B395D9F73EF49095809591
S11304C0709561957F4F8F4F9F4F0895E89409C0B1
S11304D097FB3EF490958095709561957F4F8F4F73
S11304E09F4F9923A9F0F92F96E9BB279395F69589
S11304F0879577956795B795F111F8CFFAF4BB0F07
S113050011F460FF1BC06F5F7F4F8F4F9F4F16C06A
S1130510882311F096E911C0772321F09EE8872FF4
S1130520762F05C0662371F096E8862F70E060E0B0
S11305302AF09A95660F771F881FDAF7880F969529
S1130540879597F9089597F99F6780E870E060E0D0
S113055008959FEF80EC089500240A941616170658
S113056018060906089500240A94121613061406A0
S113057005060895092E0394000C11F4882352F003
S1130580BB0F40F4BF2B11F460FF04C06F5F7F4FBB
S11305908F4F9F4F089557FD9058440F551F59F0A2
S11305A05F3F71F04795880F97FB991F61F09F3F5C
S11305B079F087950895121613061406551FF2CF85
S11305C04695F1DF08C0161617061806991FF1CFD5
S11305D086957105610508940895E894BB276627FC
S11305E07727CB0197F908950E9407030C94BA0268
S11305F00E94AC0238F00E94B30220F0952311F05F
S11306000C94A3020C94A90211240C94EE020E94EF
S1130610CB0270F3959FC1F3950F50E0551F629F75
S1130620F001729FBB27F00DB11D639FAA27F00D47
S1130630B11DAA1F649F6627B00DA11D661F829F6E
S11306402227B00DA11D621F739FB00DA11D621F53
S1130650839FA00D611D221F749F3327A00D611D70
S1130660231F849F600D211D822F762F6A2F112452
S11306709F5750409AF0F1F088234AF0EE0FFF1F85
S1130680BB1F661F771F881F91505040A9F79E3FDC
S1130690510580F00C94A3020C94EE025F3FE4F346
S11306A0983ED4F3869577956795B795F795E79532
S11306B09F5FC1F7FE2B880F911D9695879597F93B
S11306C00895BB274A3031F4992322F4BDE2909572
S11306D081959F4F0C946D03BB27FB015527AA27D7
S11306E0880F991FAA1FA41710F0A41B83955051BB
S11306F0B9F7A05DAA3308F0A95DA193009779F733
S1130700B111B1931192CB010C948603DC01FC016D
S1130710672F71917723E1F7329704C07C916D9331
S113072070836291AE17BF07C8F30895F894FFCFA2
S10507300101C1
S9030000FC
