:100000000C9445000C9462000C9462000C94620005
:100010000C9421010C9462000C9462000C94620018
:100020000C9462000C9462000C9462000C946200C8
:100030000C9462000C9462000C9462000C946200B8
:100040000C9462000C9462000C9462000C946200A8
:100050000C9462000C9462000C9462000C94620098
:100060000C9462000C94620028022B0233023102CD
:100070002E023302330233022502330233023302EB
:1000800033023302330222021F0211241FBECFEFBC
:10009000D8E0DEBFCDBF11E0A0E0B1E0ECE2F8E0D7
:1000A00002C005900D92A430B107D9F721E0A4E079
:1000B000B1E001C01D92A530B207E1F70E94340201
:1000C0000C9414040C9400009BB121E030E002C0B9
:1000D000220F331F8A95E2F7292B2BB908959BB184
:1000E00021E030E002C0220F331F8A95E2F720950D
:1000F00029232BB90895CF93DF93C7E0D0E084E0A4
:100100000E9464002FEF89E698E1215080409040E2
:10011000E1F700C0000084E00E946F002FEF84E34D
:100120009CE0215080409040E1F700C00000219702
:1001300031F7DF91CF9108958091020181110BC0B9
:1001400085E00E946F000E947B0083E00E946400B3
:1001500081E080930201089580910201813051F481
:1001600083E00E946F000E947B0085E00E94640093
:10017000109202010895806680937C00EAE7F0E027
:1001800087E88083808180648083808186FDFDCFC5
:100190008091790008951092C50083E38093C40094
:1001A0001092C00088E18093C10086E08093C20075
:1001B0000895E0ECF0E080818823ECF78091C600A0
:1001C0000895CF93DF93EC01AC0120E030E0E0EC48
:1001D000F0E066EC70E00AC0908195FFFDCFDA0197
:1001E0008D91AD01DB018C932F5F3F4FDE010D90B0
:1001F0000020E9F71197AC1BBD0B2A173B0760F3F2
:10020000DF91CF91089588EF87B93D98459A44983A
:10021000E4E6F0E08081877F808310928500109271
:100220008400E1E8F0E080818160808380818064E7
:10023000808382E08093680080E280936C007894F1
:1002400008951F920F920FB60F9211241F932F93B0
:100250003F934F935F936F937F938F939F93AF934E
:10026000BF93EF93FF93CF93DF93CDB7DEB727977D
:10027000DEBFCDBF359B06C0109285001092840072
:10028000439A2BC060918400709185001FB7F89449
:1002900080E090E00E94DE0226E933E44BE05DE37B
:1002A0000E946C0320E030E040E05FE30E946C03BA
:1002B00020E030E040E751E40E943D020E94AF029E
:1002C000DC01CB014AE0BE016F5F7F4F0E94DF037C
:1002D000CE0101960E94E1001FBF27960FB6F89449
:1002E000DEBF0FBECDBFDF91CF91FF91EF91BF91E8
:1002F000AF919F918F917F916F915F914F913F91BE
:100300002F911F910F900FBE0F901F901895CF93B4
:10031000DF93CDB7DEB727970FB6F894DEBF0FBED9
:10032000CDBF809101010E94BB004AE0BE016F5F1A
:100330007F4F90E00E94DF03CE0101960E94E10012
:1003400027960FB6F894DEBF0FBECDBFDF91CF91D9
:100350000895CF93DF93CDB7DEB727970FB6F89404
:10036000DEBF0FBECDBF809104010E94BB004AE0FA
:10037000BE016F5F7F4F90E00E94DF03CE010196C8
:100380000E94E10027960FB6F894DEBF0FBECDBFE6
:10039000DF91CF910895CF93DF93CDB7DEB7279745
:1003A0000FB6F894DEBF0FBECDBF809102014AE0C8
:1003B000BE016F5F7F4F90E00E94DF03CE01019688
:1003C0000E94E10027960FB6F894DEBF0FBECDBFA6
:1003D000DF91CF910895449A85E38A95F1F7000063
:1003E00044980895CF93DF93CDB7DEB727970FB624
:1003F000F894DEBF0FBECDBF809100014AE0BE0180
:100400006F5F7F4F90E00E94DF03CE0101960E9454
:10041000E10027960FB6F894DEBF0FBECDBFDF9187
:10042000CF9108950E94D90090E0FC01E456F109B3
:10043000E131F105C0F4EC5CFF4F0C94D9030E944C
:10044000A90108950E94CB0108950E948701089593
:100450000E94EB0108950E94F20108950E949C0001
:1004600008950E94AC00089588E38AB90E94CB00E9
:100470000E9403010E941202FDCF0E9451020C94BF
:1004800032030E942B0358F00E94240340F029F409
:100490005F3F29F00C941B0351110C9466030C94DC
:1004A00021030E94430368F39923B1F3552391F389
:1004B000951B550BBB27AA2762177307840738F0D3
:1004C0009F5F5F4F220F331F441FAA1FA9F335D030
:1004D0000E2E3AF0E0E832D091505040E695001CE4
:1004E000CAF72BD0FE2F29D0660F771F881FBB1F9E
:1004F000261737074807AB07B0E809F0BB0B802D7C
:10050000BF01FF2793585F4F3AF09E3F510578F0A7
:100510000C941B030C9466035F3FE4F3983ED4F302
:10052000869577956795B795F7959F5FC9F7880F7B
:10053000911D9695879597F90895E1E0660F771FCD
:10054000881FBB1F621773078407BA0720F0621B5E
:10055000730B840BBA0BEE1F88F7E09508950E9489
:100560004B0388F09F5798F0B92F9927B751B0F0F7
:10057000E1F0660F771F881F991F1AF0BA95C9F727
:1005800014C0B13091F00E946503B1E008950C945D
:100590006503672F782F8827B85F39F0B93FCCF310
:1005A000869577956795B395D9F73EF490958095A4
:1005B000709561957F4F8F4F9F4F0895E89409C0C4
:1005C00097FB3EF490958095709561957F4F8F4F86
:1005D0009F4F9923A9F0F92F96E9BB279395F6959C
:1005E000879577956795B795F111F8CFFAF4BB0F1A
:1005F00011F460FF1BC06F5F7F4F8F4F9F4F16C07E
:10060000882311F096E911C0772321F09EE8872F07
:10061000762F05C0662371F096E8862F70E060E0C3
:100620002AF09A95660F771F881FDAF7880F96953C
:10063000879597F9089597F99F6780E870E060E0E3
:1006400008959FEF80EC089500240A94161617066B
:1006500018060906089500240A94121613061406B3
:1006600005060895092E0394000C11F4882352F016
:10067000BB0F40F4BF2B11F460FF04C06F5F7F4FCE
:100680008F4F9F4F089557FD9058440F551F59F0B5
:100690005F3F71F04795880F97FB991F61F09F3F6F
:1006A00079F087950895121613061406551FF2CF98
:1006B0004695F1DF08C0161617061806991FF1CFE8
:1006C00086957105610508940895E894BB2766270F
:1006D0007727CB0197F908950E947F030C9432038A
:1006E0000E94240338F00E942B0320F0952311F080
:1006F0000C941B030C94210311240C9466030E9498
:10070000430370F3959FC1F3950F50E0551F629F0F
:10071000F001729FBB27F00DB11D639FAA27F00D5A
:10072000B11DAA1F649F6627B00DA11D661F829F81
:100730002227B00DA11D621F739FB00DA11D621F66
:10074000839FA00D611D221F749F3327A00D611D83
:10075000231F849F600D211D822F762F6A2F112465
:100760009F5750409AF0F1F088234AF0EE0FFF1F98
:10077000BB1F661F771F881F91505040A9F79E3FEF
:10078000510580F00C941B030C9466035F3FE4F367
:10079000983ED4F3869577956795B795F795E79545
:1007A0009F5FC1F7FE2B880F911D9695879597F94E
:1007B0000895EE0FFF1F0590F491E02D0994BB27DB
:1007C0004A3031F4992322F4BDE2909581959F4FF0
:1007D0000C94EB03BB27FB015527AA27880F991F11
:1007E000AA1FA41710F0A41B83955051B9F7A05D60
:1007F000AA3308F0A95DA193009779F7B111B193DD
:100800001192CB010C940404DC01FC01672F71915F
:100810007723E1F7329704C07C916D9370836291E6
:0C082000AE17BF07C8F30895F894FFCF8F
:04082C006501010061
:00000001FF
