S013000041667374616E64546573742E73726563B0
S11300000C9434000C943E000C943E000C943E007E
S11300100C94A8000C943E000C943E000C943E00FA
S11300200C943E000C943E000C943E000C943E0054
S11300300C943E000C943E000C943E000C943E0044
S11300400C943E000C943E000C943E000C943E0034
S11300500C943E000C943E000C943E000C943E0024
S11300600C943E000C943E0011241FBECFEFD8E048
S1130070DEBFCDBF0E9497000C94DF020C940000F9
S11300808FEF87B93D98459A4498E4E6F0E0808183
S1130090877F80831092850010928400E1E8F0E06D
S11300A080818160808380818064808382E080930A
S11300B0680080E280936C00789408951092C500E3
S11300C083E38093C4001092C00088E18093C10050
S11300D086E08093C2000895CF93DF93EC01AC01D6
S11300E020E030E0E0ECF0E066EC70E00AC09081E3
S11300F095FFFDCFDA018D91AD01DB018C932F5F6C
S11301003F4FDE010D900020E9F71197AC1BBD0BAA
S11301102A173B0760F3BFE32DE083E0B150204092
S11301208040E1F700C00000DF91CF9108950E9464
S113013040000E945E0087E99AE30197F1F700C04E
S11301400000449A93E09A95F1F700004498F3CFA5
S11301501F920F920FB60F9211241F932F933F9368
S11301604F935F936F937F938F939F93AF93BF93BB
S1130170EF93FF93CF93DF93CDB7DEB72797DEBF1F
S1130180CDBF359B06C01092850010928400439A1F
S11301902BC060918400709185001FB7F89480E0B3
S11301A090E00E94AF0126E933E44BE05DE30E9456
S11301B03D0220E030E040E05FE30E943D0220E0A9
S11301C030E040E751E40E940E010E948001DC010E
S11301D0CB014AE0BE016F5F7F4F0E94AA02CE01AD
S11301E001960E946C001FBF27960FB6F894DEBFDD
S11301F00FBECDBFDF91CF91FF91EF91BF91AF9132
S11302009F918F917F916F915F914F913F912F912A
S11302101F910F900FBE0F901F9018950E942201FE
S11302200C9403020E94FC0158F00E94F50140F076
S113023029F45F3F29F00C94EC0151110C9437021E
S11302400C94F2010E94140268F39923B1F355232C
S113025091F3951B550BBB27AA27621773078407D5
S113026038F09F5F5F4F220F331F441FAA1FA9F36B
S113027035D00E2E3AF0E0E832D091505040E69559
S1130280001CCAF72BD0FE2F29D0660F771F881FBA
S1130290BB1F261737074807AB07B0E809F0BB0BAD
S11302A0802DBF01FF2793585F4F3AF09E3F5105C1
S11302B078F00C94EC010C9437025F3FE4F3983E21
S11302C0D4F3869577956795B795F7959F5FC9F7AA
S11302D0880F911D9695879597F90895E1E0660F2B
S11302E0771F881FBB1F621773078407BA0720F0A4
S11302F0621B730B840BBA0BEE1F88F7E09508950D
S11303000E941C0288F09F5798F0B92F9927B75183
S1130310B0F0E1F0660F771F881F991F1AF0BA95A5
S1130320C9F714C0B13091F00E943602B1E00895CB
S11303300C943602672F782F8827B85F39F0B93FBD
S1130340CCF3869577956795B395D9F73EF4909558
S11303508095709561957F4F8F4F9F4F0895E894D6
S113036009C097FB3EF490958095709561957F4FF9
S11303708F4F9F4F9923A9F0F92F96E9BB279395A7
S1130380F695879577956795B795F111F8CFFAF4B7
S1130390BB0F11F460FF1BC06F5F7F4F8F4F9F4FE8
S11303A016C0882311F096E911C0772321F09EE846
S11303B0872F762F05C0662371F096E8862F70E0AC
S11303C060E02AF09A95660F771F881FDAF7880F86
S11303D09695879597F9089597F99F6780E870E057
S11303E060E008959FEF80EC089500240A941616A7
S11303F0170618060906089500240A94121613060F
S1130400140605060895092E0394000C11F488239C
S113041052F0BB0F40F4BF2B11F460FF04C06F5FB8
S11304207F4F8F4F9F4F089557FD9058440F551F8E
S113043059F05F3F71F04795880F97FB991F61F062
S11304409F3F79F087950895121613061406551FD9
S1130450F2CF4695F1DF08C0161617061806991F45
S1130460F1CF86957105610508940895E894BB273A
S113047066277727CB0197F908950E9450020C94C0
S113048003020E94F50138F00E94FC0120F095233C
S113049011F00C94EC010C94F20111240C94370229
S11304A00E94140270F3959FC1F3950F50E0551FFD
S11304B0629FF001729FBB27F00DB11D639FAA27B5
S11304C0F00DB11DAA1F649F6627B00DA11D661F04
S11304D0829F2227B00DA11D621F739FB00DA11D25
S11304E0621F839FA00D611D221F749F3327A00DDF
S11304F0611D231F849F600D211D822F762F6A2F7B
S113050011249F5750409AF0F1F088234AF0EE0FDF
S1130510FF1FBB1F661F771F881F91505040A9F70C
S11305209E3F510580F00C94EC010C9437025F3F20
S1130530E4F3983ED4F3869577956795B795F79548
S1130540E7959F5FC1F7FE2B880F911D96958795C0
S113055097F90895BB274A3031F4992322F4BDE278
S1130560909581959F4F0C94B602BB27FB015527AC
S1130570AA27880F991FAA1FA41710F0A41B8395FC
S11305805051B9F7A05DAA3308F0A95DA193009773
S113059079F7B111B1931192CB010C94CF02DC0124
S11305A0FC01672F71917723E1F7329704C07C91A6
S11305B06D9370836291AE17BF07C8F30895F894E2
S10505C0FFCF67
S9030000FC
