S01400004C6564426F617264546573742E7372656373
S11300000C9434000C943E000C943E000C943E007E
S11300100C943E000C943E000C943E000C943E0064
S11300200C943E000C943E000C943E000C943E0054
S11300300C943E000C943E000C943E000C943E0044
S11300400C943E000C943E000C943E000C943E0034
S11300500C943E000C943E000C943E000C943E0024
S11300600C943E000C943E0011241FBECFEFD8E048
S1130070DEBFCDBF0E9440000C9489000C940000A8
S113008081E08AB95B988AE090E05C9A2FEF39E6C8
S113009048E1215030404040E1F700C000005C9846
S11300A02FEF39E648E1215030404040E1F700C0ED
S11300B00000019751F75D9A8FEF93E224EF81508E
S11300C090402040E1F700C000005D988AE090E095
S11300D05C9A3FEF49E628E1315040402040E1F787
S11300E000C000005C983FEF49E628E131504040F1
S11300F02040E1F700C00000019751F75B9A3FEF01
S113010043E284EF315040408040E1F700C00000FA
S1090110B9CFF894FFCF03
S9030000FC
